{
  "contractName": "ProposalManager",
  "abi": [
    {
      "inputs": [],
      "stateMutability": "nonpayable",
      "type": "constructor"
    },
    {
      "anonymous": false,
      "inputs": [
        {
          "indexed": true,
          "internalType": "uint256",
          "name": "proposalIndex",
          "type": "uint256"
        },
        {
          "indexed": true,
          "internalType": "address",
          "name": "proposersAddress",
          "type": "address"
        }
      ],
      "name": "ProposalAccepted",
      "type": "event"
    },
    {
      "anonymous": false,
      "inputs": [
        {
          "indexed": true,
          "internalType": "uint256",
          "name": "proposalIndex",
          "type": "uint256"
        }
      ],
      "name": "ProposalAdded",
      "type": "event"
    },
    {
      "anonymous": false,
      "inputs": [
        {
          "indexed": true,
          "internalType": "uint256",
          "name": "proposalIndex",
          "type": "uint256"
        },
        {
          "indexed": true,
          "internalType": "address",
          "name": "voter",
          "type": "address"
        }
      ],
      "name": "VoteCast",
      "type": "event"
    },
    {
      "anonymous": false,
      "inputs": [
        {
          "indexed": true,
          "internalType": "string",
          "name": "newAstralDataID",
          "type": "string"
        }
      ],
      "name": "astralDataAdded",
      "type": "event"
    },
    {
      "inputs": [
        {
          "internalType": "uint256",
          "name": "",
          "type": "uint256"
        }
      ],
      "name": "astralDatas",
      "outputs": [
        {
          "internalType": "string",
          "name": "id",
          "type": "string"
        },
        {
          "internalType": "int256",
          "name": "Dw",
          "type": "int256"
        },
        {
          "internalType": "int256",
          "name": "lambda",
          "type": "int256"
        }
      ],
      "stateMutability": "view",
      "type": "function",
      "constant": true
    },
    {
      "inputs": [
        {
          "internalType": "address",
          "name": "",
          "type": "address"
        }
      ],
      "name": "authorizedAccounts",
      "outputs": [
        {
          "internalType": "bool",
          "name": "",
          "type": "bool"
        }
      ],
      "stateMutability": "view",
      "type": "function",
      "constant": true
    },
    {
      "inputs": [
        {
          "internalType": "uint256",
          "name": "",
          "type": "uint256"
        }
      ],
      "name": "proposals",
      "outputs": [
        {
          "internalType": "address",
          "name": "proposer",
          "type": "address"
        },
        {
          "internalType": "uint256",
          "name": "dataID",
          "type": "uint256"
        },
        {
          "components": [
            {
              "internalType": "string",
              "name": "id",
              "type": "string"
            },
            {
              "internalType": "int256[]",
              "name": "position",
              "type": "int256[]"
            },
            {
              "internalType": "string",
              "name": "tag",
              "type": "string"
            },
            {
              "internalType": "int256",
              "name": "T",
              "type": "int256"
            },
            {
              "internalType": "bool[]",
              "name": "composition",
              "type": "bool[]"
            },
            {
              "internalType": "int256",
              "name": "mass",
              "type": "int256"
            }
          ],
          "internalType": "struct ProposalManager.astralObject",
          "name": "object",
          "type": "tuple"
        },
        {
          "internalType": "int256",
          "name": "voteCount",
          "type": "int256"
        },
        {
          "internalType": "bool",
          "name": "isAccepted",
          "type": "bool"
        }
      ],
      "stateMutability": "view",
      "type": "function",
      "constant": true
    },
    {
      "inputs": [
        {
          "internalType": "uint256",
          "name": "",
          "type": "uint256"
        }
      ],
      "name": "winnerProposals",
      "outputs": [
        {
          "internalType": "address",
          "name": "proposer",
          "type": "address"
        },
        {
          "internalType": "uint256",
          "name": "dataID",
          "type": "uint256"
        },
        {
          "components": [
            {
              "internalType": "string",
              "name": "id",
              "type": "string"
            },
            {
              "internalType": "int256[]",
              "name": "position",
              "type": "int256[]"
            },
            {
              "internalType": "string",
              "name": "tag",
              "type": "string"
            },
            {
              "internalType": "int256",
              "name": "T",
              "type": "int256"
            },
            {
              "internalType": "bool[]",
              "name": "composition",
              "type": "bool[]"
            },
            {
              "internalType": "int256",
              "name": "mass",
              "type": "int256"
            }
          ],
          "internalType": "struct ProposalManager.astralObject",
          "name": "object",
          "type": "tuple"
        },
        {
          "internalType": "int256",
          "name": "voteCount",
          "type": "int256"
        },
        {
          "internalType": "bool",
          "name": "isAccepted",
          "type": "bool"
        }
      ],
      "stateMutability": "view",
      "type": "function",
      "constant": true
    },
    {
      "inputs": [
        {
          "internalType": "string",
          "name": "id",
          "type": "string"
        },
        {
          "internalType": "int256[]",
          "name": "position",
          "type": "int256[]"
        },
        {
          "internalType": "int256",
          "name": "Dw",
          "type": "int256"
        },
        {
          "internalType": "int256[]",
          "name": "radioComposition",
          "type": "int256[]"
        },
        {
          "internalType": "int256",
          "name": "lambda",
          "type": "int256"
        },
        {
          "internalType": "int256[]",
          "name": "Ds",
          "type": "int256[]"
        },
        {
          "internalType": "int256[]",
          "name": "magnitude",
          "type": "int256[]"
        }
      ],
      "name": "addAstralData",
      "outputs": [],
      "stateMutability": "nonpayable",
      "type": "function"
    },
    {
      "inputs": [
        {
          "internalType": "uint256",
          "name": "index",
          "type": "uint256"
        }
      ],
      "name": "getAstralDataID",
      "outputs": [
        {
          "internalType": "string",
          "name": "",
          "type": "string"
        }
      ],
      "stateMutability": "view",
      "type": "function",
      "constant": true
    },
    {
      "inputs": [
        {
          "internalType": "uint256",
          "name": "index",
          "type": "uint256"
        }
      ],
      "name": "getAstralDataPosition",
      "outputs": [
        {
          "internalType": "int256[]",
          "name": "",
          "type": "int256[]"
        }
      ],
      "stateMutability": "view",
      "type": "function",
      "constant": true
    },
    {
      "inputs": [
        {
          "internalType": "uint256",
          "name": "index",
          "type": "uint256"
        }
      ],
      "name": "getAstralDataDw",
      "outputs": [
        {
          "internalType": "int256",
          "name": "",
          "type": "int256"
        }
      ],
      "stateMutability": "view",
      "type": "function",
      "constant": true
    },
    {
      "inputs": [
        {
          "internalType": "uint256",
          "name": "index",
          "type": "uint256"
        }
      ],
      "name": "getAstralDataRadioComposition",
      "outputs": [
        {
          "internalType": "int256[]",
          "name": "",
          "type": "int256[]"
        }
      ],
      "stateMutability": "view",
      "type": "function",
      "constant": true
    },
    {
      "inputs": [
        {
          "internalType": "uint256",
          "name": "index",
          "type": "uint256"
        }
      ],
      "name": "getAstralDataLambda",
      "outputs": [
        {
          "internalType": "int256",
          "name": "",
          "type": "int256"
        }
      ],
      "stateMutability": "view",
      "type": "function",
      "constant": true
    },
    {
      "inputs": [
        {
          "internalType": "uint256",
          "name": "index",
          "type": "uint256"
        }
      ],
      "name": "getAstralDataDs",
      "outputs": [
        {
          "internalType": "int256[]",
          "name": "",
          "type": "int256[]"
        }
      ],
      "stateMutability": "view",
      "type": "function",
      "constant": true
    },
    {
      "inputs": [
        {
          "internalType": "uint256",
          "name": "index",
          "type": "uint256"
        }
      ],
      "name": "getAstralDataMagnitude",
      "outputs": [
        {
          "internalType": "int256[]",
          "name": "",
          "type": "int256[]"
        }
      ],
      "stateMutability": "view",
      "type": "function",
      "constant": true
    },
    {
      "inputs": [],
      "name": "getAstralDatasCount",
      "outputs": [
        {
          "internalType": "uint256",
          "name": "",
          "type": "uint256"
        }
      ],
      "stateMutability": "view",
      "type": "function",
      "constant": true
    },
    {
      "inputs": [],
      "name": "getAstralDatas",
      "outputs": [
        {
          "components": [
            {
              "internalType": "string",
              "name": "id",
              "type": "string"
            },
            {
              "internalType": "int256[]",
              "name": "position",
              "type": "int256[]"
            },
            {
              "internalType": "int256",
              "name": "Dw",
              "type": "int256"
            },
            {
              "internalType": "int256[]",
              "name": "radioComposition",
              "type": "int256[]"
            },
            {
              "internalType": "int256",
              "name": "lambda",
              "type": "int256"
            },
            {
              "internalType": "int256[]",
              "name": "Ds",
              "type": "int256[]"
            },
            {
              "internalType": "int256[]",
              "name": "magnitude",
              "type": "int256[]"
            }
          ],
          "internalType": "struct ProposalManager.astralData[]",
          "name": "",
          "type": "tuple[]"
        }
      ],
      "stateMutability": "view",
      "type": "function",
      "constant": true
    },
    {
      "inputs": [
        {
          "internalType": "uint256",
          "name": "dataID",
          "type": "uint256"
        },
        {
          "internalType": "string",
          "name": "id",
          "type": "string"
        },
        {
          "internalType": "int256[]",
          "name": "position",
          "type": "int256[]"
        },
        {
          "internalType": "string",
          "name": "tag",
          "type": "string"
        },
        {
          "internalType": "int256",
          "name": "T",
          "type": "int256"
        },
        {
          "internalType": "bool[]",
          "name": "composition",
          "type": "bool[]"
        },
        {
          "internalType": "int256",
          "name": "mass",
          "type": "int256"
        }
      ],
      "name": "addProposal",
      "outputs": [],
      "stateMutability": "nonpayable",
      "type": "function"
    },
    {
      "inputs": [],
      "name": "getProposalsCount",
      "outputs": [
        {
          "internalType": "uint256",
          "name": "",
          "type": "uint256"
        }
      ],
      "stateMutability": "view",
      "type": "function",
      "constant": true
    },
    {
      "inputs": [
        {
          "internalType": "uint256",
          "name": "index",
          "type": "uint256"
        }
      ],
      "name": "getProposalProposerID",
      "outputs": [
        {
          "internalType": "address",
          "name": "",
          "type": "address"
        }
      ],
      "stateMutability": "view",
      "type": "function",
      "constant": true
    },
    {
      "inputs": [
        {
          "internalType": "uint256",
          "name": "index",
          "type": "uint256"
        }
      ],
      "name": "getProposalDataID",
      "outputs": [
        {
          "internalType": "uint256",
          "name": "",
          "type": "uint256"
        }
      ],
      "stateMutability": "view",
      "type": "function",
      "constant": true
    },
    {
      "inputs": [
        {
          "internalType": "uint256",
          "name": "index",
          "type": "uint256"
        }
      ],
      "name": "getProposalsVoteCount",
      "outputs": [
        {
          "internalType": "int256",
          "name": "",
          "type": "int256"
        }
      ],
      "stateMutability": "view",
      "type": "function",
      "constant": true
    },
    {
      "inputs": [
        {
          "internalType": "uint256",
          "name": "index",
          "type": "uint256"
        }
      ],
      "name": "getProposalAccepted",
      "outputs": [
        {
          "internalType": "bool",
          "name": "",
          "type": "bool"
        }
      ],
      "stateMutability": "view",
      "type": "function",
      "constant": true
    },
    {
      "inputs": [
        {
          "internalType": "uint256",
          "name": "index",
          "type": "uint256"
        }
      ],
      "name": "getProposalAlreadyVoted",
      "outputs": [
        {
          "internalType": "bool",
          "name": "",
          "type": "bool"
        }
      ],
      "stateMutability": "view",
      "type": "function",
      "constant": true
    },
    {
      "inputs": [
        {
          "internalType": "uint256",
          "name": "proposalIndex",
          "type": "uint256"
        },
        {
          "internalType": "int256",
          "name": "voting",
          "type": "int256"
        }
      ],
      "name": "vote",
      "outputs": [],
      "stateMutability": "nonpayable",
      "type": "function"
    },
    {
      "inputs": [
        {
          "internalType": "uint256",
          "name": "index",
          "type": "uint256"
        }
      ],
      "name": "markProposalAsAccepted",
      "outputs": [],
      "stateMutability": "nonpayable",
      "type": "function"
    }
  ],
  "bytecode": "0x608060405234801561001057600080fd5b506001600460003373ffffffffffffffffffffffffffffffffffffffff1673ffffffffffffffffffffffffffffffffffffffff16815260200190815260200160002060006101000a81548160ff021916908315150217905550336000806101000a81548173ffffffffffffffffffffffffffffffffffffffff021916908373ffffffffffffffffffffffffffffffffffffffff160217905550612e9a806100b86000396000f3fe608060405234801561001057600080fd5b506004361061014c5760003560e01c80638d478d80116100c3578063acaf5c241161007c578063acaf5c241461043d578063ae9bb3d21461045b578063b8e4783d1461048b578063bafafb18146104bb578063ca6d6965146104d7578063fb9eea98146104f55761014c565b80638d478d801461033f57806395dd9a8f1461036f578063961252601461039f57806398e527d3146103cf578063a3db5db8146103ed578063aaf88c81146104095761014c565b806324ba58841161011557806324ba588414610233578063278c698f1461026357806329a373f714610293578063434086b8146102c35780634feed599146102f35780635e44daf3146103235761014c565b806212bb9f14610151578063013cf08b146101815780631c446b69146101b55780631dcf132f146101e75780631fbe61cf14610203575b600080fd5b61016b60048036038101906101669190611b52565b610525565b6040516101789190611b8e565b60405180910390f35b61019b60048036038101906101969190611b52565b610554565b6040516101ac959493929190611ec8565b60405180910390f35b6101cf60048036038101906101ca9190611b52565b6107de565b6040516101de93929190611f6c565b60405180910390f35b61020160048036038101906101fc91906121d3565b6108a0565b005b61021d60048036038101906102189190611b52565b610a91565b60405161022a9190612301565b60405180910390f35b61024d60048036038101906102489190612348565b610ac0565b60405161025a9190612375565b60405180910390f35b61027d60048036038101906102789190611b52565b610ae0565b60405161028a91906123ff565b60405180910390f35b6102ad60048036038101906102a89190611b52565b610b5d565b6040516102ba9190612421565b60405180910390f35b6102dd60048036038101906102d89190611b52565b610bac565b6040516102ea91906123ff565b60405180910390f35b61030d60048036038101906103089190611b52565b610c29565b60405161031a9190612301565b60405180910390f35b61033d6004803603810190610338919061243c565b610c58565b005b61035960048036038101906103549190611b52565b610e4e565b604051610366919061247c565b60405180910390f35b61038960048036038101906103849190611b52565b610f05565b6040516103969190612301565b60405180910390f35b6103b960048036038101906103b49190611b52565b610f34565b6040516103c691906123ff565b60405180910390f35b6103d7610fb1565b6040516103e49190611b8e565b60405180910390f35b61040760048036038101906104029190611b52565b610fbe565b005b610423600480360381019061041e9190611b52565b611217565b604051610434959493929190611ec8565b60405180910390f35b6104456114a1565b6040516104529190612618565b60405180910390f35b61047560048036038101906104709190611b52565b611706565b60405161048291906123ff565b60405180910390f35b6104a560048036038101906104a09190611b52565b611783565b6040516104b29190612375565b60405180910390f35b6104d560048036038101906104d09190612729565b6117bf565b005b6104df611918565b6040516104ec9190611b8e565b60405180910390f35b61050f600480360381019061050a9190611b52565b611925565b60405161051c9190612375565b60405180910390f35b60006002828154811061053b5761053a61283b565b5b90600052602060002090600b0201600101549050919050565b6002818154811061056457600080fd5b90600052602060002090600b02016000915090508060000160009054906101000a900473ffffffffffffffffffffffffffffffffffffffff1690806001015490806002016040518060c00160405290816000820180546105c390612899565b80601f01602080910402602001604051908101604052809291908181526020018280546105ef90612899565b801561063c5780601f106106115761010080835404028352916020019161063c565b820191906000526020600020905b81548152906001019060200180831161061f57829003601f168201915b505050505081526020016001820180548060200260200160405190810160405280929190818152602001828054801561069457602002820191906000526020600020905b815481526020019060010190808311610680575b505050505081526020016002820180546106ad90612899565b80601f01602080910402602001604051908101604052809291908181526020018280546106d990612899565b80156107265780601f106106fb57610100808354040283529160200191610726565b820191906000526020600020905b81548152906001019060200180831161070957829003601f168201915b5050505050815260200160038201548152602001600482018054806020026020016040519081016040528092919081815260200182805480156107ad57602002820191906000526020600020906000905b82829054906101000a900460ff161515815260200190600101906020826000010492830192600103820291508084116107775790505b50505050508152602001600582015481525050908060080154908060090160009054906101000a900460ff16905085565b600181815481106107ee57600080fd5b906000526020600020906007020160009150905080600001805461081190612899565b80601f016020809104026020016040519081016040528092919081815260200182805461083d90612899565b801561088a5780601f1061085f5761010080835404028352916020019161088a565b820191906000526020600020905b81548152906001019060200180831161086d57829003601f168201915b5050505050908060020154908060040154905083565b600460003373ffffffffffffffffffffffffffffffffffffffff1673ffffffffffffffffffffffffffffffffffffffff16815260200190815260200160002060009054906101000a900460ff1661092c576040517f08c379a00000000000000000000000000000000000000000000000000000000081526004016109239061293c565b60405180910390fd5b61093461199e565b8781600001819052508681602001819052508581604001818152505084816060018190525083816080018181525050828160a00181905250818160c00181905250600181908060018154018082558091505060019003906000526020600020906007020160009091909190915060008201518160000190816109b69190612b08565b5060208201518160010190805190602001906109d39291906119db565b506040820151816002015560608201518160030190805190602001906109fa9291906119db565b506080820151816004015560a0820151816005019080519060200190610a219291906119db565b5060c0820151816006019080519060200190610a3e9291906119db565b5050508060000151604051610a539190612c16565b60405180910390207f6dc96fb7f3bfaf2cf656259798e7c8eacf23ecfb9260063efc85c3d527336a7560405160405180910390a25050505050505050565b600060028281548110610aa757610aa661283b565b5b90600052602060002090600b0201600801549050919050565b60046020528060005260406000206000915054906101000a900460ff1681565b606060018281548110610af657610af561283b565b5b9060005260206000209060070201600501805480602002602001604051908101604052809291908181526020018280548015610b5157602002820191906000526020600020905b815481526020019060010190808311610b3d575b50505050509050919050565b600060028281548110610b7357610b7261283b565b5b90600052602060002090600b020160000160009054906101000a900473ffffffffffffffffffffffffffffffffffffffff169050919050565b606060018281548110610bc257610bc161283b565b5b9060005260206000209060070201600301805480602002602001604051908101604052809291908181526020018280548015610c1d57602002820191906000526020600020905b815481526020019060010190808311610c09575b50505050509050919050565b600060018281548110610c3f57610c3e61283b565b5b9060005260206000209060070201600401549050919050565b6002805490508210610c9f576040517f08c379a0000000000000000000000000000000000000000000000000000000008152600401610c9690612c79565b60405180910390fd5b60028281548110610cb357610cb261283b565b5b90600052602060002090600b0201600a0160003373ffffffffffffffffffffffffffffffffffffffff1673ffffffffffffffffffffffffffffffffffffffff16815260200190815260200160002060009054906101000a900460ff1615610d4f576040517f08c379a0000000000000000000000000000000000000000000000000000000008152600401610d4690612d0b565b60405180910390fd5b8060028381548110610d6457610d6361283b565b5b90600052602060002090600b02016008016000828254610d849190612d5a565b92505081905550600160028381548110610da157610da061283b565b5b90600052602060002090600b0201600a0160003373ffffffffffffffffffffffffffffffffffffffff1673ffffffffffffffffffffffffffffffffffffffff16815260200190815260200160002060006101000a81548160ff0219169083151502179055503373ffffffffffffffffffffffffffffffffffffffff16827ff1003b73c437642c0460aee9cd9628b0b8c447b66e6c7c905531b9c644214a1160405160405180910390a35050565b606060018281548110610e6457610e6361283b565b5b90600052602060002090600702016000018054610e8090612899565b80601f0160208091040260200160405190810160405280929190818152602001828054610eac90612899565b8015610ef95780601f10610ece57610100808354040283529160200191610ef9565b820191906000526020600020905b815481529060010190602001808311610edc57829003601f168201915b50505050509050919050565b600060018281548110610f1b57610f1a61283b565b5b9060005260206000209060070201600201549050919050565b606060018281548110610f4a57610f4961283b565b5b9060005260206000209060070201600101805480602002602001604051908101604052809291908181526020018280548015610fa557602002820191906000526020600020905b815481526020019060010190808311610f91575b50505050509050919050565b6000600280549050905090565b600460003373ffffffffffffffffffffffffffffffffffffffff1673ffffffffffffffffffffffffffffffffffffffff16815260200190815260200160002060009054906101000a900460ff1661104a576040517f08c379a00000000000000000000000000000000000000000000000000000000081526004016110419061293c565b60405180910390fd5b6002805490508110611091576040517f08c379a000000000000000000000000000000000000000000000000000000000815260040161108890612c79565b60405180910390fd5b600281815481106110a5576110a461283b565b5b90600052602060002090600b020160090160009054906101000a900460ff1615611104576040517f08c379a00000000000000000000000000000000000000000000000000000000081526004016110fb90612e10565b60405180910390fd5b60016002828154811061111a5761111961283b565b5b90600052602060002090600b020160090160006101000a81548160ff021916908315150217905550600060036001816001815401808255809150500390600052602060002090600b020190506002828154811061117a5761117961283b565b5b90600052602060002090600b020190506002828154811061119e5761119d61283b565b5b90600052602060002090600b020160000160009054906101000a900473ffffffffffffffffffffffffffffffffffffffff1673ffffffffffffffffffffffffffffffffffffffff16827f488e676b8b729cd92586573f5b7b42787c118396c4a19f570e9c9e422e4dbf1860405160405180910390a35050565b6003818154811061122757600080fd5b90600052602060002090600b02016000915090508060000160009054906101000a900473ffffffffffffffffffffffffffffffffffffffff1690806001015490806002016040518060c001604052908160008201805461128690612899565b80601f01602080910402602001604051908101604052809291908181526020018280546112b290612899565b80156112ff5780601f106112d4576101008083540402835291602001916112ff565b820191906000526020600020905b8154815290600101906020018083116112e257829003601f168201915b505050505081526020016001820180548060200260200160405190810160405280929190818152602001828054801561135757602002820191906000526020600020905b815481526020019060010190808311611343575b5050505050815260200160028201805461137090612899565b80601f016020809104026020016040519081016040528092919081815260200182805461139c90612899565b80156113e95780601f106113be576101008083540402835291602001916113e9565b820191906000526020600020905b8154815290600101906020018083116113cc57829003601f168201915b50505050508152602001600382015481526020016004820180548060200260200160405190810160405280929190818152602001828054801561147057602002820191906000526020600020906000905b82829054906101000a900460ff1615158152602001906001019060208260000104928301926001038202915080841161143a5790505b50505050508152602001600582015481525050908060080154908060090160009054906101000a900460ff16905085565b60606001805480602002602001604051908101604052809291908181526020016000905b828210156116fd57838290600052602060002090600702016040518060e00160405290816000820180546114f890612899565b80601f016020809104026020016040519081016040528092919081815260200182805461152490612899565b80156115715780601f1061154657610100808354040283529160200191611571565b820191906000526020600020905b81548152906001019060200180831161155457829003601f168201915b50505050508152602001600182018054806020026020016040519081016040528092919081815260200182805480156115c957602002820191906000526020600020905b8154815260200190600101908083116115b5575b50505050508152602001600282015481526020016003820180548060200260200160405190810160405280929190818152602001828054801561162b57602002820191906000526020600020905b815481526020019060010190808311611617575b50505050508152602001600482015481526020016005820180548060200260200160405190810160405280929190818152602001828054801561168d57602002820191906000526020600020905b815481526020019060010190808311611679575b50505050508152602001600682018054806020026020016040519081016040528092919081815260200182805480156116e557602002820191906000526020600020905b8154815260200190600101908083116116d1575b505050505081525050815260200190600101906114c5565b50505050905090565b60606001828154811061171c5761171b61283b565b5b906000526020600020906007020160060180548060200260200160405190810160405280929190818152602001828054801561177757602002820191906000526020600020905b815481526020019060010190808311611763575b50505050509050919050565b6000600282815481106117995761179861283b565b5b90600052602060002090600b020160090160009054906101000a900460ff169050919050565b600060026001816001815401808255809150500390600052602060002090600b02019050338160000160006101000a81548173ffffffffffffffffffffffffffffffffffffffff021916908373ffffffffffffffffffffffffffffffffffffffff160217905550878160010181905550868160020160000190816118439190612b08565b508581600201600101908051906020019061185f9291906119db565b50848160020160020190816118749190612b08565b508381600201600301819055508281600201600401908051906020019061189c929190611a28565b508181600201600501819055506000816008018190555060008160090160006101000a81548160ff02191690831515021790555060016002805490506118e29190612e30565b7f3f802220982dbddc337f1811180e73513e775b18380401997927fd1454cfd0bd60405160405180910390a25050505050505050565b6000600180549050905090565b60006002828154811061193b5761193a61283b565b5b90600052602060002090600b0201600a0160003373ffffffffffffffffffffffffffffffffffffffff1673ffffffffffffffffffffffffffffffffffffffff16815260200190815260200160002060009054906101000a900460ff169050919050565b6040518060e00160405280606081526020016060815260200160008152602001606081526020016000815260200160608152602001606081525090565b828054828255906000526020600020908101928215611a17579160200282015b82811115611a165782518255916020019190600101906119fb565b5b509050611a249190611ace565b5090565b82805482825590600052602060002090601f01602090048101928215611abd5791602002820160005b83821115611a8e57835183826101000a81548160ff0219169083151502179055509260200192600101602081600001049283019260010302611a51565b8015611abb5782816101000a81549060ff0219169055600101602081600001049283019260010302611a8e565b505b509050611aca9190611aeb565b5090565b5b80821115611ae7576000816000905550600101611acf565b5090565b5b80821115611b04576000816000905550600101611aec565b5090565b6000604051905090565b600080fd5b600080fd5b6000819050919050565b611b2f81611b1c565b8114611b3a57600080fd5b50565b600081359050611b4c81611b26565b92915050565b600060208284031215611b6857611b67611b12565b5b6000611b7684828501611b3d565b91505092915050565b611b8881611b1c565b82525050565b6000602082019050611ba36000830184611b7f565b92915050565b600073ffffffffffffffffffffffffffffffffffffffff82169050919050565b6000611bd482611ba9565b9050919050565b611be481611bc9565b82525050565b600081519050919050565b600082825260208201905092915050565b60005b83811015611c24578082015181840152602081019050611c09565b60008484015250505050565b6000601f19601f8301169050919050565b6000611c4c82611bea565b611c568185611bf5565b9350611c66818560208601611c06565b611c6f81611c30565b840191505092915050565b600081519050919050565b600082825260208201905092915050565b6000819050602082019050919050565b6000819050919050565b611cb981611ca6565b82525050565b6000611ccb8383611cb0565b60208301905092915050565b6000602082019050919050565b6000611cef82611c7a565b611cf98185611c85565b9350611d0483611c96565b8060005b83811015611d35578151611d1c8882611cbf565b9750611d2783611cd7565b925050600181019050611d08565b5085935050505092915050565b600081519050919050565b600082825260208201905092915050565b6000819050602082019050919050565b60008115159050919050565b611d8381611d6e565b82525050565b6000611d958383611d7a565b60208301905092915050565b6000602082019050919050565b6000611db982611d42565b611dc38185611d4d565b9350611dce83611d5e565b8060005b83811015611dff578151611de68882611d89565b9750611df183611da1565b925050600181019050611dd2565b5085935050505092915050565b600060c0830160008301518482036000860152611e298282611c41565b91505060208301518482036020860152611e438282611ce4565b91505060408301518482036040860152611e5d8282611c41565b9150506060830151611e726060860182611cb0565b5060808301518482036080860152611e8a8282611dae565b91505060a0830151611e9f60a0860182611cb0565b508091505092915050565b611eb381611ca6565b82525050565b611ec281611d6e565b82525050565b600060a082019050611edd6000830188611bdb565b611eea6020830187611b7f565b8181036040830152611efc8186611e0c565b9050611f0b6060830185611eaa565b611f186080830184611eb9565b9695505050505050565b600082825260208201905092915050565b6000611f3e82611bea565b611f488185611f22565b9350611f58818560208601611c06565b611f6181611c30565b840191505092915050565b60006060820190508181036000830152611f868186611f33565b9050611f956020830185611eaa565b611fa26040830184611eaa565b949350505050565b600080fd5b600080fd5b7f4e487b7100000000000000000000000000000000000000000000000000000000600052604160045260246000fd5b611fec82611c30565b810181811067ffffffffffffffff8211171561200b5761200a611fb4565b5b80604052505050565b600061201e611b08565b905061202a8282611fe3565b919050565b600067ffffffffffffffff82111561204a57612049611fb4565b5b61205382611c30565b9050602081019050919050565b82818337600083830152505050565b600061208261207d8461202f565b612014565b90508281526020810184848401111561209e5761209d611faf565b5b6120a9848285612060565b509392505050565b600082601f8301126120c6576120c5611faa565b5b81356120d684826020860161206f565b91505092915050565b600067ffffffffffffffff8211156120fa576120f9611fb4565b5b602082029050602081019050919050565b600080fd5b61211981611ca6565b811461212457600080fd5b50565b60008135905061213681612110565b92915050565b600061214f61214a846120df565b612014565b905080838252602082019050602084028301858111156121725761217161210b565b5b835b8181101561219b57806121878882612127565b845260208401935050602081019050612174565b5050509392505050565b600082601f8301126121ba576121b9611faa565b5b81356121ca84826020860161213c565b91505092915050565b600080600080600080600060e0888a0312156121f2576121f1611b12565b5b600088013567ffffffffffffffff8111156122105761220f611b17565b5b61221c8a828b016120b1565b975050602088013567ffffffffffffffff81111561223d5761223c611b17565b5b6122498a828b016121a5565b965050604061225a8a828b01612127565b955050606088013567ffffffffffffffff81111561227b5761227a611b17565b5b6122878a828b016121a5565b94505060806122988a828b01612127565b93505060a088013567ffffffffffffffff8111156122b9576122b8611b17565b5b6122c58a828b016121a5565b92505060c088013567ffffffffffffffff8111156122e6576122e5611b17565b5b6122f28a828b016121a5565b91505092959891949750929550565b60006020820190506123166000830184611eaa565b92915050565b61232581611bc9565b811461233057600080fd5b50565b6000813590506123428161231c565b92915050565b60006020828403121561235e5761235d611b12565b5b600061236c84828501612333565b91505092915050565b600060208201905061238a6000830184611eb9565b92915050565b600082825260208201905092915050565b60006123ac82611c7a565b6123b68185612390565b93506123c183611c96565b8060005b838110156123f25781516123d98882611cbf565b97506123e483611cd7565b9250506001810190506123c5565b5085935050505092915050565b6000602082019050818103600083015261241981846123a1565b905092915050565b60006020820190506124366000830184611bdb565b92915050565b6000806040838503121561245357612452611b12565b5b600061246185828601611b3d565b925050602061247285828601612127565b9150509250929050565b600060208201905081810360008301526124968184611f33565b905092915050565b600081519050919050565b600082825260208201905092915050565b6000819050602082019050919050565b600060e08301600083015184820360008601526124e78282611c41565b915050602083015184820360208601526125018282611ce4565b91505060408301516125166040860182611cb0565b506060830151848203606086015261252e8282611ce4565b91505060808301516125436080860182611cb0565b5060a083015184820360a086015261255b8282611ce4565b91505060c083015184820360c08601526125758282611ce4565b9150508091505092915050565b600061258e83836124ca565b905092915050565b6000602082019050919050565b60006125ae8261249e565b6125b881856124a9565b9350836020820285016125ca856124ba565b8060005b8581101561260657848403895281516125e78582612582565b94506125f283612596565b925060208a019950506001810190506125ce565b50829750879550505050505092915050565b6000602082019050818103600083015261263281846125a3565b905092915050565b600067ffffffffffffffff82111561265557612654611fb4565b5b602082029050602081019050919050565b61266f81611d6e565b811461267a57600080fd5b50565b60008135905061268c81612666565b92915050565b60006126a56126a08461263a565b612014565b905080838252602082019050602084028301858111156126c8576126c761210b565b5b835b818110156126f157806126dd888261267d565b8452602084019350506020810190506126ca565b5050509392505050565b600082601f8301126127105761270f611faa565b5b8135612720848260208601612692565b91505092915050565b600080600080600080600060e0888a03121561274857612747611b12565b5b60006127568a828b01611b3d565b975050602088013567ffffffffffffffff81111561277757612776611b17565b5b6127838a828b016120b1565b965050604088013567ffffffffffffffff8111156127a4576127a3611b17565b5b6127b08a828b016121a5565b955050606088013567ffffffffffffffff8111156127d1576127d0611b17565b5b6127dd8a828b016120b1565b94505060806127ee8a828b01612127565b93505060a088013567ffffffffffffffff81111561280f5761280e611b17565b5b61281b8a828b016126fb565b92505060c061282c8a828b01612127565b91505092959891949750929550565b7f4e487b7100000000000000000000000000000000000000000000000000000000600052603260045260246000fd5b7f4e487b7100000000000000000000000000000000000000000000000000000000600052602260045260246000fd5b600060028204905060018216806128b157607f821691505b6020821081036128c4576128c361286a565b5b50919050565b7f4f6e6c7920617574686f72697a6564206163636f756e74732063616e2070657260008201527f666f726d207468697320616374696f6e00000000000000000000000000000000602082015250565b6000612926603083611f22565b9150612931826128ca565b604082019050919050565b6000602082019050818103600083015261295581612919565b9050919050565b60008190508160005260206000209050919050565b60006020601f8301049050919050565b600082821b905092915050565b6000600883026129be7fffffffffffffffffffffffffffffffffffffffffffffffffffffffffffffffff82612981565b6129c88683612981565b95508019841693508086168417925050509392505050565b6000819050919050565b6000612a05612a006129fb84611b1c565b6129e0565b611b1c565b9050919050565b6000819050919050565b612a1f836129ea565b612a33612a2b82612a0c565b84845461298e565b825550505050565b600090565b612a48612a3b565b612a53818484612a16565b505050565b5b81811015612a7757612a6c600082612a40565b600181019050612a59565b5050565b601f821115612abc57612a8d8161295c565b612a9684612971565b81016020851015612aa5578190505b612ab9612ab185612971565b830182612a58565b50505b505050565b600082821c905092915050565b6000612adf60001984600802612ac1565b1980831691505092915050565b6000612af88383612ace565b9150826002028217905092915050565b612b1182611bea565b67ffffffffffffffff811115612b2a57612b29611fb4565b5b612b348254612899565b612b3f828285612a7b565b600060209050601f831160018114612b725760008415612b60578287015190505b612b6a8582612aec565b865550612bd2565b601f198416612b808661295c565b60005b82811015612ba857848901518255600182019150602085019450602081019050612b83565b86831015612bc55784890151612bc1601f891682612ace565b8355505b6001600288020188555050505b505050505050565b600081905092915050565b6000612bf082611bea565b612bfa8185612bda565b9350612c0a818560208601611c06565b80840191505092915050565b6000612c228284612be5565b915081905092915050565b7f496e76616c69642070726f706f73616c20696e64657800000000000000000000600082015250565b6000612c63601683611f22565b9150612c6e82612c2d565b602082019050919050565b60006020820190508181036000830152612c9281612c56565b9050919050565b7f596f75206861766520616c726561647920766f74656420666f7220746869732060008201527f70726f706f73616c000000000000000000000000000000000000000000000000602082015250565b6000612cf5602883611f22565b9150612d0082612c99565b604082019050919050565b60006020820190508181036000830152612d2481612ce8565b9050919050565b7f4e487b7100000000000000000000000000000000000000000000000000000000600052601160045260246000fd5b6000612d6582611ca6565b9150612d7083611ca6565b925082820190508281121560008312168382126000841215161715612d9857612d97612d2b565b5b92915050565b7f50726f706f73616c20697320616c7265616479206d61726b656420617320616360008201527f6365707465640000000000000000000000000000000000000000000000000000602082015250565b6000612dfa602683611f22565b9150612e0582612d9e565b604082019050919050565b60006020820190508181036000830152612e2981612ded565b9050919050565b6000612e3b82611b1c565b9150612e4683611b1c565b9250828203905081811115612e5e57612e5d612d2b565b5b9291505056fea26469706673582212209ec568ef5720798f1e8f24990a799878e8e477146d132423281be4f08321ce9e64736f6c63430008130033",
  "immutableReferences": {},
  "source": "// SPDX-License-Identifier: MIT\r\npragma solidity ^0.8.0;\r\n\r\ncontract ProposalManager {\r\n\r\n    struct astralData{\r\n        string id;\r\n        int[] position;\r\n        int Dw;\r\n        int[] radioComposition;\r\n        int lambda;\r\n        int[] Ds;\r\n        int[] magnitude;\r\n    }\r\n\r\n    struct astralObject{\r\n        string id;\r\n        int[] position;\r\n        string tag;\r\n        int T;\r\n        bool[] composition;\r\n        int mass;\r\n    }\r\n\r\n    // Struct to represent a proposal\r\n    struct Proposal {\r\n        address proposer;\r\n        uint dataID;\r\n        astralObject object;\r\n        int voteCount;\r\n        bool isAccepted;\r\n        mapping(address => bool) voters;\r\n    }\r\n\r\n    address masterNode;\r\n    \r\n    //Array to store all astral datas\r\n    astralData[] public astralDatas;\r\n\r\n    // Array to store all the proposals\r\n    Proposal[] public proposals;\r\n    \r\n    //  Array to store all the winning proposals\r\n    Proposal[] public winnerProposals;\r\n\r\n    // Mapping to keep track of authorized accounts\r\n    mapping(address => bool) public authorizedAccounts;\r\n    \r\n    // Constructor to set the deployer's account as authorized by default\r\n    constructor() {\r\n        authorizedAccounts[msg.sender] = true;\r\n        masterNode = msg.sender;\r\n    }\r\n    \r\n    // Modifier to restrict certain functions to authorized accounts only\r\n    modifier onlyAuthorized() {\r\n        require(authorizedAccounts[msg.sender], \"Only authorized accounts can perform this action\");\r\n        _;\r\n    }\r\n\r\n    function addAstralData(string memory id, int[] memory position, int Dw, int[] memory radioComposition, int lambda, int[] memory Ds, int[] memory magnitude) public onlyAuthorized{\r\n        astralData memory newAstralData;\r\n        newAstralData.id = id;\r\n        newAstralData.position = position;\r\n        newAstralData.Dw = Dw;\r\n        newAstralData.radioComposition = radioComposition;\r\n        newAstralData.lambda = lambda;\r\n        newAstralData.Ds = Ds;\r\n        newAstralData.magnitude = magnitude;\r\n        astralDatas.push(newAstralData);\r\n\r\n        emit astralDataAdded(newAstralData.id);\r\n    }\r\n\r\n    function getAstralDataID(uint index) public view returns (string memory) {\r\n        return astralDatas[index].id;\r\n    }\r\n\r\n    function getAstralDataPosition(uint index) public view returns (int[] memory) {\r\n        return astralDatas[index].position;\r\n    }\r\n\r\n    function getAstralDataDw(uint index) public view returns (int) {\r\n        return astralDatas[index].Dw;\r\n    }\r\n\r\n    function getAstralDataRadioComposition(uint index) public view returns (int[] memory) {\r\n        return astralDatas[index].radioComposition;\r\n    }\r\n\r\n    function getAstralDataLambda(uint index) public view returns (int) {\r\n        return astralDatas[index].lambda;\r\n    }\r\n\r\n    function getAstralDataDs(uint index) public view returns (int[] memory) {\r\n        return astralDatas[index].Ds;\r\n    }\r\n\r\n    function getAstralDataMagnitude(uint index) public view returns (int[] memory) {\r\n        return astralDatas[index].magnitude;\r\n    }\r\n\r\n    function getAstralDatasCount() public view returns (uint256) {\r\n        return astralDatas.length;\r\n    }\r\n\r\n    function getAstralDatas() public view returns (astralData[] memory) {\r\n        return astralDatas;\r\n    }\r\n    \r\n    // Function to add a new proposal\r\n    function addProposal(uint dataID, string memory id, int[] memory position, string memory tag, int T, bool[] memory composition, int mass) public {\r\n        // Create a new proposal and push it to the proposals array\r\n        Proposal storage newProposal = proposals.push();\r\n        newProposal.proposer = msg.sender;\r\n        newProposal.dataID = dataID; \r\n        newProposal.object.id = id;\r\n        newProposal.object.position = position;\r\n        newProposal.object.tag = tag;\r\n        newProposal.object.T = T;\r\n        newProposal.object.composition = composition;\r\n        newProposal.object.mass = mass;\r\n        newProposal.voteCount = 0;\r\n        newProposal.isAccepted = false;\r\n        \r\n        // Emit an event indicating the new proposal has been added\r\n        emit ProposalAdded(proposals.length - 1);\r\n    }\r\n\r\n    function getProposalsCount() public view returns (uint256) {\r\n        return proposals.length;\r\n    }\r\n\r\n    function getProposalProposerID(uint index) public view returns (address) {\r\n        return proposals[index].proposer;\r\n    }\r\n\r\n    function getProposalDataID(uint index) public view returns (uint256){\r\n        return proposals[index].dataID;\r\n    }\r\n\r\n    function getProposalsVoteCount(uint index) public view returns (int){\r\n        return proposals[index].voteCount;\r\n    }\r\n\r\n    function getProposalAccepted(uint index) public view returns(bool){\r\n        return proposals[index].isAccepted;\r\n    }\r\n\r\n    function getProposalAlreadyVoted(uint index) public view returns (bool) {\r\n        return proposals[index].voters[msg.sender];\r\n    }\r\n    \r\n    // Function to vote on a proposal\r\n    function vote(uint256 proposalIndex, int voting) public {\r\n        require(proposalIndex < proposals.length, \"Invalid proposal index\");\r\n        require(!proposals[proposalIndex].voters[msg.sender], \"You have already voted for this proposal\");\r\n        \r\n        // Increment the vote count for the specified proposal\r\n        proposals[proposalIndex].voteCount += voting;\r\n        \r\n        // Mark the sender as a voter for the specified proposal\r\n        proposals[proposalIndex].voters[msg.sender] = true;\r\n        \r\n        // Emit an event indicating the vote has been cast\r\n        emit VoteCast(proposalIndex, msg.sender);\r\n    }\r\n\r\n    function markProposalAsAccepted(uint256 index) public onlyAuthorized {\r\n        require(index < proposals.length, \"Invalid proposal index\");\r\n        require(!proposals[index].isAccepted, \"Proposal is already marked as accepted\");\r\n        \r\n        proposals[index].isAccepted = true;\r\n        Proposal storage tmp = winnerProposals.push();\r\n        tmp = proposals[index];\r\n\r\n        emit ProposalAccepted(index, proposals[index].proposer);\r\n    }\r\n    \r\n    // Events to communicate changes and actions\r\n    event astralDataAdded(string indexed newAstralDataID);\r\n    event ProposalAdded(uint256 indexed proposalIndex);\r\n    event VoteCast(uint256 indexed proposalIndex, address indexed voter);\r\n    event ProposalAccepted(uint indexed proposalIndex, address indexed proposersAddress);\r\n}\r\n",
  "sourcePath": "c:\\Users\\Leonardo\\OneDrive\\Progetto Tecnologie Internet\\contracts\\proposalManager.sol",
  "compiler": {
    "name": "solc",
    "version": "0.8.19+commit.7dd6d404.Emscripten.clang"
  },
  "schemaVersion": "3.4.13",
  "updatedAt": "2023-05-28T13:19:19.865Z",
  "networkType": "ethereum",
  "devdoc": {
    "kind": "dev",
    "methods": {},
    "version": 1
  },
  "userdoc": {
    "kind": "user",
    "methods": {},
    "version": 1
  }
}